:020000040000FA
:10000000B8240010B9040000BD040000050600007B
:10001000C1040000C3040000C5040000000000008B
:10002000000000000000000000000000C704000005
:10003000C904000000000000CB040000CD04000053
:10004000CF040000CF040000CF040000CF04000064
:10005000CF040000CF040000CF040000CF04000054
:10006000CF040000CF040000CF040000CF04000044
:10007000CF040000CF040000CF040000CF04000034
:10008000CF040000CF040000CF040000CF04000024
:10009000CF040000CF040000CF040000CF04000014
:1000A000CF040000CF040000CF040000CF04000004
:1000B000CF040000CF040000CF040000CF040000F4
:1000C000CF040000CF040000CF040000CF040000E4
:1000D000CF040000CF040000CF040000CF040000D4
:1000E000CF0400000000000000000000000000003D
:1000F0000000000000000000000000000000000000
:1001000000000000000000000000000000000000EF
:1001100000000000000000000000000000000000DF
:1001200000000000000000000000000000000000CF
:1001300000000000000000000000000000000000BF
:1001400000000000000000000000000000000000AF
:10015000000000000000000000000000000000009F
:10016000000000000000000000000000000000008F
:10017000000000000000000000000000000000007F
:10018000000000000000000000000000000000006F
:10019000000000000000000000000000000000005F
:1001A000000000000000000000000000000000004F
:1001B000000000000000000000000000000000003F
:1001C000000000000000000000000000000000002F
:1001D000000000000000000000000000000000001F
:1001E000000000000000000000000000000000000F
:1001F00000000000000000000000000000000000FF
:1002000000000000000000000000000000000000EE
:1002100000000000000000000000000000000000DE
:1002200000000000000000000000000000000000CE
:1002300000000000000000000000000000000000BE
:1002400000000000000000000000000000000000AE
:10025000000000000000000000000000000000009E
:10026000000000000000000000000000000000008E
:10027000000000000000000000000000000000007E
:10028000000000000000000000000000000000006E
:10029000000000000000000000000000000000005E
:1002A000000000000000000000000000000000004E
:1002B000000000000000000000000000000000003E
:1002C000000000000000000000000000000000002E
:1002D000000000000000000000000000000000001E
:1002E000000000000000000000000000000000000E
:1002F000000000000000000000000000FFFFFFFF02
:1003000000000000000000000000000000000000ED
:1003100000000000000000000000000000000000DD
:1003200000000000000000000000000000000000CD
:1003300000000000000000000000000000000000BD
:1003400000000000000000000000000000000000AD
:10035000000000000000000000000000000000009D
:10036000000000000000000000000000000000008D
:10037000000000000000000000000000000000007D
:10038000000000000000000000000000000000006D
:10039000000000000000000000000000000000005D
:1003A000000000000000000000000000000000004D
:1003B000000000000000000000000000000000003D
:1003C000000000000000000000000000000000002D
:1003D000000000000000000000000000000000001D
:1003E000000000000000000000000000000000000D
:1003F00000000000000000000000000000000000FD
:1004000000F002F800F03AF80AA090E8000C8244EC
:100410008344AAF10107DA4501D100F02FF8AFF2C9
:10042000090EBAE80F0013F0010F18BFFB1A43F0D2
:1004300001031847300C0000500C0000103A24BF94
:1004400078C878C1FAD8520724BF30C830C144BF39
:1004500004680C607047000000230024002500267B
:10046000103A28BF78C1FBD8520728BF30C148BF17
:100470000B6070471FB51FBD10B510BD00F058F8D8
:100480001146FFF7F7FF00F00DFA00F076F803B41D
:10049000FFF7F2FF03BC00F07BF8000040BA7047A2
:1004A000C0BA70474FF48030006885460148006844
:1004B000004700BF0400010008480047FEE7FEE7D0
:1004C000FEE7FEE7FEE7FEE7FEE7FEE7FEE7FEE704
:1004D00003480449024A044B70470000010400002D
:1004E000B8040010B8240010B804001010B5431C64
:1004F00002E010F8011B71B18107FAD14FF001320F
:1005000002C88C1A8C4314EAC211F9D0C01A0A0628
:1005100003D0C01E10BDC01A10BD0A0401D0801E39
:1005200010BD0902FCD0401E10BD704770477047D7
:10053000754600F029F8AE4605006946534620F09E
:100540000700854618B020B5FFF7C2FFBDE8204080
:100550004FF000064FF000074FF000084FF0000B7F
:1005600021F00701AC46ACE8C009ACE8C009ACE832
:10057000C009ACE8C0098D4670470446AFF300805F
:100580002046FFF784FF0000004870475804001021
:1005900001491820ABBEFEE72600020070470000AC
:1005A00070B504460D4616463820064908600846D0
:1005B00044608560C6600449044A90470248006868
:1005C00070BD00001800001038000010F11FFF1F60
:1005D00070B504460D46342007490860084644605B
:1005E00085604BF68030C86004490348044A904750
:1005F0000248006870BD00001800001038000010AC
:10060000F11FFF1F0024002100BFEFF30880024606
:100610005369956923F001064948006800F002001B
:1006200028B147480068464F386000BFFEE744489D
:10063000006800F0004028B141480068404F386031
:1006400000BFFEE73E48006800F08040002866D00A
:100650003B4800683A4F3860381F016801F09B0042
:10066000D0B101F0800010B135480830046801F0C5
:10067000010008B100BFFEE701F0020008B100BFB1
:10068000FEE701F0080008B100BFFEE701F010002E
:10069000002844D000BFFEE701F41F40F0B101F490
:1006A000004010B126480C30046801F4807008B195
:1006B00000BFFEE701F4007008B100BFFEE701F4DF
:1006C000806008B100BFFEE701F4006008B100BF20
:1006D000FEE701F4805010B300BFFEE71948084060
:1006E000E8B101F4803008B100BFFEE701F400304A
:1006F00008B100BFFEE701F4802008B100BFFEE7AB
:1007000001F4002008B100BFFEE701F0807008B1DD
:1007100000BFFEE701F0007008B100BFFEE7204611
:1007200000F02AFA106800F027FA184600F024FAC0
:10073000284600F021FA304600F01EFA00BFFEE71E
:100740002CED00E000000F0370B504460D46164680
:10075000332008490860084644608560C6604BF64F
:100760008030086104490348044A90470248006801
:1007700070BD00001800001038000010F11FFF1FAE
:1007800070B504460D4632200549086008464460AD
:1007900085600449044A90470248006870BD000023
:1007A0001800001038000010F11FFF1F21202E49F3
:1007B000086000BF2C48006800F040000028F9D015
:1007C000012029499439086003202849C1F8840090
:1007D0000120264980310860AA2024498C31086014
:1007E0005520086000BF21488830006800F4806010
:1007F0000028F8D023201D49A431086001201B499E
:10080000C1F8A000AA201949AC3108605520174949
:10081000C1F8AC0000BF1548A830006800F4806043
:100820000028F8D040F201100F499C39086040F2CE
:1008300001200E49C1F8080101200B49A0390860C8
:10084000022009490831086009480849C431086094
:10085000881505492831086045F23A0003490860C7
:100860000020044908607047A0C10F4000C00F403D
:10087000DE87280408ED00E002214FF0402251609D
:1008800001211160002111679160D160044909685C
:100890004143916105215161012151607047000080
:1008A000040000101FB5FFF781FF7248006840F098
:1008B00002007049A039C1F8A0000846006E40F45B
:1008C000000008664FF40000C8670846006E40F458
:1008D000001008664FF40010C8670846006E40F428
:1008E000800008664FF4800088674FF4164000F0DF
:1008F00063FA002160A000F0BDFA0A20FFF7BCFFF8
:1009000002205C491C3108605A49A039C1F8B8007E
:10091000002456E04FF04020006800F0010050B184
:1009200001204FF0402108605B49086000215BA076
:1009300000F0A0FA46E0684600F0C0F900282EDD7D
:100940009DF80000492803D09DF80000692800D1D7
:1009500001249DF80000412803D09DF80000612883
:1009600004D1012C01D1022400E000249DF80000F4
:10097000502803D09DF80000702804D1022C01D12A
:10098000032400E000249DF80000512803D09DF8C6
:100990000000712803D101203F49086012E0032CB8
:1009A00007D100203C490860002147A000F062FA0E
:1009B00008E002202F491C3108602E49A039C1F8F7
:1009C000B800A7E700BF34480068B8B900F056F98E
:1009D000A0B9002147A000F04DFA1D210846FFF7FD
:1009E000CFFE40B91D210846FFF7F2FD18B90021DE
:1009F00047A000F03FFA4D484D49086000F0DCF890
:100A000018BB00214BA000F035FA00F067F900F0A8
:100A1000D3F890B100214DA000F02CFA0220154926
:100A20001C3108601349A039C1F8B800C00340491F
:100A3000091F0860FFF736FD19E0002149A000F00A
:100A400019FA3A483A49086011E000213FA000F045
:100A500011FA022007491C3108600649A039C1F883
:100A6000B800C0033249091F0860FFF71BFD0020D2
:100A700004B010BDA08009200D0A4A5847465F56B1
:100A8000342E3020526561647920466F7220557093
:100A90006461746573203E00100000100D0A5469F3
:100AA0006D656F75742077616974696E6720666F14
:100AB0007220746865207570677261646520636F69
:100AC0006D6D616E642100000D0A52656365697683
:100AD000696E672061207375636365737366756CF7
:100AE000207570677261646520636F6D6D616E64FF
:100AF000210000000D0A4572617365206D61726B03
:100B000020435243206661696C6564210000000047
:100B10000D0A457261736520746865206C61737499
:100B200020736563746F7221000000000100FA05F4
:100B30000CED00E00D0A496E746F207570677261EC
:100B40006465207374617465210000000D0A4578A6
:100B50006563757465207573657220636F646521C4
:100B6000000000000D0A55706772616465206661BF
:100B7000696C757265210000704730B5024600202F
:100B800016E0082312F8015B80EA052000BF00F49C
:100B900000442CB141F2210484EA4004A0B203E0F5
:100BA0004FF6FF7404EA40005C1EE4B22300EED16D
:100BB0004C1E211EE5DA30BD70B500250026084C1C
:100BC0002088E110884209D006494FF48030FFF7B1
:100BD000D4FF05462088A84200D10126304670BDCA
:100BE000FCFF0700FCFF060070B505460C4600261A
:100BF000EDB1E4B11D211020FFF7C2FDB8B9FF2C03
:100C000001DC4FF48074224629460A480068FFF749
:100C10009BFD60B92246294606480068FFF7C0FCE4
:100C200028B904480068204402490860012630467B
:100C300070BD000014000010F0B5C1B005460027DB
:100C40000D4E002404E001CE01A941F82400641CEB
:100C5000402CF8D340951D210846FFF791FD38B987
:100C60004FF4807201A90448FFF76EFD00B9012717
:100C7000384641B0F0BD000000FF070070B5C0B0BD
:100C800000260D4D002403E001CD4DF82400641C26
:100C9000402CF9D300203F901D210846FFF770FD3E
:100CA00038B94FF4807269460348FFF74DFD00B92B
:100CB0000126304640B070BD00FF0700014600200D
:100CC000054A127D02F0010222B1034A12780A702D
:100CD000421CD0B27047000000C0094010B500218E
:100CE00012A000F0C7F81D211020FFF749FDE0B960
:100CF0001D211020FFF76CFCA8B90024002112A0D0
:100D000000F0B8F8164800F0CFF816494FF48030DC
:100D1000FFF733FF04462046FFF78EFF002112A0A5
:100D200000F0A8F801E000BFFEE710BD0D0A457213
:100D30006173696E6720626F61726420666C6173B3
:100D4000682E2E2E000000000D0A466C617368208C
:100D50006572617365207375636365737321000049
:100D6000E90B0000FCFF06000D0A50726F6772610C
:100D70006D2066696E6973686564210002214FF019
:100D8000402251600021D1601146C968491C094ABE
:100D90001268B2FBF1F14FF47A72B1FBF2F1414308
:100DA0004FF040229161FF21116004215161012126
:100DB000516070470000001070B501460520012405
:100DC0008440264D460945F8264000BF2448006867
:100DD00040F00070224CC43CC4F8C4002148D0F854
:100DE000700220F007001F4CC4F870022046D0F8B3
:100DF000700240F00200C4F870022046D0F874027D
:100E000020F00700C4F874022046D0F8740240F0C5
:100E10000200154C20608320144C20731448006895
:100E20000009B0FBF1F2100A207122700320207338
:100E3000072020722046037D00BF0C48007D00F093
:100E400060006028F9D101E0084803780748007D78
:100E500000F001000028F7D100BF70BD80E100E084
:100E6000C4C00F4000C0024074C2024000C009402C
:100E70000400001070B505460C461CB92846FFF763
:100E800035FB04460BE028780649087000BF05488A
:100E9000007D00F040000028F9D06D1C641E002C7D
:100EA000F1D170BD00C009402DE9FC4707464FF065
:100EB00001084FF000094FF41640FFF77DFFC6E030
:100EC0000220664908606549BC39C1F8B800B9F12B
:100ED000000F06D0B9F1010F10D0B9F1020F79D18E
:100EE00039E043200190012101A8FFF7C3FF40F63C
:100EF000B830FFF743FF4FF00109A7E001A8FFF763
:100F0000DDFEB0B19DF80400022803D09DF8040076
:100F100001281FD19DF80400022801D1450200E0FC
:100F20008025012441F65830FFF728FF4FF00209D1
:100F300010E04FF04020406800F0010050B943201D
:100F4000009001216846FFF795FF40F6B830FFF7A3
:100F500015FF00BF7AE001A8FFF7B0FE002873D0AC
:100F60000CBB9DF80400022803D09DF80400012862
:100F70000CD19DF80400022801D1450200E0802533
:100F8000012441F65830FFF7F9FE5DE09DF80400BA
:100F9000042859D10620009001216846FFF76AFF16
:100FA0004FF0000850E0012C01D1641C4CE0022CF1
:100FB00001D1641C48E0832C01D1802D06D040F281
:100FC0000340844207D1B5F5806F04D19DF80460D9
:100FD000641C39E039E0842C01D1802D06D040F228
:100FE000044084422AD1B5F5806F27D14FF6FF70B7
:100FF00000EA06269DF80400064329461848FFF734
:10100000BCFDB04211D1A9B21548B84730B1062095
:10101000009001216846FFF72DFF05E015200090A4
:1010200001216846FFF726FF06E015200090012108
:101030006846FFF71FFF00BF002405E09DF804107D
:10104000E01E074A1154641C00E000BF00BFB8F165
:10105000000F7FF435AFBDE8FC870000BC8009209D
:10106000580000108410000000000010180000005C
:101070003C0400009C10000018000010A024000098
:1010800058040000006CDC0200366E0100366E0170
:0C109000006CDC02000000000000010009
:0400000500000401F2
:00000001FF
